S00D0000736E616B652E7372656305
S11300000C9434000C9451000C9451000C94510045
S11300100C9451000C9451000C9451000C94510018
S11300200C9451000C9451000C9451000C94510008
S11300300C9451000C9451000C9451000C945100F8
S11300400C9451000C9451000C9451000C945100E8
S11300500C9451000C9451000C9451000C945100D8
S11300600C9451000C94510011241FBECFEFD8E022
S1130070DEBFCDBF11E0A0E0B1E0E0E8F5E002C0F2
S113008005900D92A431B107D9F721E0A4E1B1E0C4
S113009001C01D92A435B207E1F70E94EF000C9451
S11300A0BE020C9400002A989EBD0DB407FEFDCF3D
S11300B08EBD0DB407FEFDCF2A9A89EF90E001971B
S11300C0F1F700C000000895803120F490E09A60B8
S11300D00E94530008950F931F93CF93DF938830AA
S11300E080F5683070F5C82FD0E0FE01EE0FFF1FD9
S11300F0EC5FFE4F0081118141110FC081E090E05F
S113010002C0880F991F6A95E2F78095909508239D
S11301101923C8010E9453000EC0413061F481E0EC
S113012090E002C0880F991F6A95E2F7082B192BFB
S1130130C8010E945300CC0FDD1FCC5FDE4F198332
S11301400883DF91CF911F910F910895CF93DF938F
S1130150C0E0D1E0CE010E945300D395C11589E0DF
S1130160D807C1F7DF91CF910895E1E0F0E0DF0116
S113017002C0AA0FBB1F4A95E2F7AD01DF0102C01E
S1130180AA0FBB1F2A95E2F79D01242B02C0EE0F94
S1130190FF1F6A95E2F7E22BDC01EC9381E58CBD4D
S11301A080E099E00E94530087E09BE00E945300A6
S11301B00E94A60081E09CE00E94530008952A9AC0
S11301C022E045E063E084E290E00E94B5008FE025
S11301D00E9464000E94AE010E94940108950E944E
S11301E0DF00209A289AFFCF8830A0F46830A0F46A
S11301F0E82FF0E0EE0FFF1FEE0FFF1FEE0FFF1FC3
S1130200EC5EFE4FE60FF11D81E09081992329F009
S113021080E0089580E0089580E00895CF92DF9211
S1130220EF92FF920F931F93CF93DF937C018B0187
S11302300E94350287709078992324F40197886F7F
S11302409F6F0196D82F0E9435028770907899236A
S113025024F40197886F9F6F0196C82F0F2EF7E043
S1130260DF2EF02D6C2F8D2F0E94F400882329F0AF
S1130270F701D083F801C08337C00E94350287702C
S11302809078992324F40197886F9F6F0196D82F53
S11302900E94350287709078992324F40197886F1F
S11302A09F6F0196C82FDA94D110DCCFC12C14C0F3
S11302B06C2F8D2F0E94F400882329F0F701C0824F
S11302C0F801C08311C0CF5FC83091F7CC24C39428
S11302D0CD0EF8E0CF1619F0C0E0DC2DE9CF8FEF9A
S11302E0F7018083F8018083DF91CF911F910F91F3
S11302F0FF90EF90DF90CF900895E82FF0E0EE0F9D
S1130300FF1FEE0FFF1FEE0FFF1FEC5EFE4FE60F09
S1130310F11D4083442321F041E00E946B000895C5
S113032040E00E946B000895CF93DF9300D0CDB7D7
S1130330DEB7BE016E5F7F4FCE0101960E940E01B3
S113034089818F3F31F06A816F3F19F041E00E944B
S11303507D010F900F90DF91CF91089586E690E094
S11303600E94450290E00E943A020E9435026FEF1B
S113037070E00E94C101682F86E690E00E944D0261
S1130380089597FB072E16F4009407D077FD09D043
S11303900E94D50107FC05D03EF4909581959F4FAE
S11303A00895709561957F4F0895AA1BBB1B51E179
S11303B007C0AA1FBB1FA617B70710F0A61BB70BD1
S11303C0881F991F5A95A9F780959095BC01CD0176
S11303D008958F929F92AF92BF92CF92DF92EF9245
S11303E0FF92CF93DF93EC01688179818A819B81AD
S11303F0611571058105910521F464E279ED8BE5C0
S113040097E02DE133EF41E050E00E945B024901A7
S11304105A019B01AC01A7EAB1E40E947A026B0184
S11304207C01ACEEB4EFA50194010E948802DC01CA
S1130430CB018C0D9D1DAE1DBF1DB7FF03C00197E1
S1130440A109B04888839983AA83BB839F77DF91EE
S1130450CF91FF90EF90DF90CF90BF90AF909F909F
S11304608F9008950E94E901089580E091E00E9430
S1130470E9010895A0E0B0E08093000190930101A8
S1130480A0930201B09303010895F999FECF92BDA0
S113049081BDF89A992780B50895262FF999FECF42
S11304A01FBA92BD81BD20BD0FB6F894FA9AF99A8D
S11304B00FBE01960895052E97FB1EF400940E942A
S11304C0720257FD07D00E948D0207FC03D04EF440
S11304D00C94720250954095309521953F4F4F4FA3
S11304E05F4F089590958095709561957F4F8F4FDC
S11304F09F4F08950E94AF02A59F900DB49F900D49
S1130500A49F800D911D11240895B7FF0C947A02C5
S11305100E947A02821B930B0895A1E21A2EAA1B51
S1130520BB1BFD010DC0AA1FBB1FEE1FFF1FA2179F
S1130530B307E407F50720F0A21BB30BE40BF50B9C
S1130540661F771F881F991F1A9469F76095709525
S1130550809590959B01AC01BD01CF010895A29FA8
S1130560B001B39FC001A39F700D811D1124911D83
S1130570B29F700D811D1124911D0895F894FFCF31
S11305800100000000080007000600050004000345
S10705900002000160
S9030000FC
