S00D0000736E616B652E7372656305
S11300000C9434000C9451000C9451000C94510045
S11300100C9451000C9451000C9451000C94510018
S11300200C9451000C9451000C9451000C94510008
S11300300C9451000C9451000C9451000C945100F8
S11300400C9451000C9451000C9451000C945100E8
S11300500C9451000C9451000C9451000C945100D8
S11300600C9451000C94510011241FBECFEFD8E022
S1130070DEBFCDBF11E0A0E0B1E0E6E8F8E002C0E9
S113008005900D92AA31B107D9F721E0AAE1B1E0B8
S113009001C01D92AE35B207E1F70E94FA000C943C
S11300A041040C9400002A989EBD0DB407FEFDCFB8
S11300B08EBD0DB407FEFDCF2A9A89EF90E001971B
S11300C0F1F700C00000089590E09A600E94530088
S11300D00895CF93DF93C0E0D1E0CE010E94530096
S11300E0D395C11589E0D807C1F7DF91CF91089561
S11300F0E1E0F0E0DF0102C0AA0FBB1F4A95E2F77E
S1130100AD01DF0102C0AA0FBB1F2A95E2F79D01D2
S1130110242B02C0EE0FFF1F6A95E2F7E22BDC01ED
S1130120EC9381E58CBD80E099E00E94530087E068
S11301309BE00E9453000E94690081E09CE00E94C1
S11301405300089581E00895EF92FF920F931F9357
S1130150CF93DF93C82F162F042F0E94A200882369
S113016091F1812F0E94A200882369F1D0E0FE0161
S1130170EE0FFF1FE65FFE4FE080F18001110FC01C
S113018081E090E002C0880F991F1A95E2F78095EC
S11301909095E822F922C7010E9453000EC0013055
S11301A061F481E090E002C0880F991F1A95E2F78C
S11301B0E82AF92AC7010E945300CC0FDD1FC65F4D
S11301C0DE4FF982E882DF91CF911F910F91FF906A
S11301D0EF9008952A9A22E045E063E084E290E0FB
S11301E00E9478008FE00E9464000E940B020E942B
S11301F0EE0108950E94EA000E94BD01209A289A07
S1130200FFCFCF93DF93C82FD62F0E94A20088235D
S1130210A9F08D2F0E94A200882381F0EC2FF0E03A
S1130220EE0FFF1FEE0FFF1FEE0FFF1FE65EFE4FE8
S1130230ED0FF11D81E09081911180E0DF91CF916C
S11302400895CF92DF92EF92FF920F931F93CF9373
S1130250DF937C018B010E94B3038770907899230C
S113026024F40197886F9F6F0196D82F0E94B303DF
S113027087709078992324F40197886F9F6F019673
S1130280C82F0F2EF7E0DF2EF02D6C2F8D2F0E943C
S11302900101882329F0F701D083F801C08337C016
S11302A00E94B30387709078992324F40197886F90
S11302B09F6F0196D82F0E94B3038770907899237B
S11302C024F40197886F9F6F0196C82FDA94D11098
S11302D0DCCFC12C14C06C2F8D2F0E940101882308
S11302E029F0F701C082F801C08311C0CF5FC83084
S11302F091F7CC24C394CD0EF8E0CF1619F0C0E0EA
S1130300DC2DE9CF8FEFF7018083F8018083DF9143
S1130310CF911F910F91FF90EF90DF90CF900895B0
S11303201F93CF93DF93C82FD62F142F0E94A200C0
S11303308823F9F08D2F0E94A2008823D1F0EC2F9E
S1130340F0E0EE0FFF1FEE0FFF1FEE0FFF1FE65E44
S1130350FE4FED0FF11D1083112331F041E06D2F9D
S11303608C2F0E94A40005C040E06D2F8C2F0E94AA
S1130370A400DF91CF911F9108950F931F93CF9302
S1130380DF9300D0CDB7DEB786E090E00E9446024E
S11303908C01BE016E5F7F4FCE0101960E94210148
S11303A089818F3F19F06A816F3F11F40E94C30362
S11303B0F80180836183138212821582148241E0E2
S11303C00E949001C8010F900F90DF91CF911F916F
S11303D00F91089580E090E00E944104CF93DF9351
S11303E000D0CDB7DEB7BE016E5F7F4FCE01019660
S11303F00E94210189818F3F39F06A816F3F21F08A
S113040041E00E94900102C00E94EA010F900F9007
S1130410DF91CF91089586E690E00E94C80390E0B2
S11304200E94B8030E94B3036FEF70E00E941E02A3
S1130430682F86E690E00E94D003089597FB072E6C
S113044016F4009407D077FD09D00E94320207FC0D
S113045005D03EF4909581959F4F089570956195D0
S11304607F4F0895AA1BBB1B51E107C0AA1FBB1FE6
S1130470A617B70710F0A61BB70B881F991F5A952C
S1130480A9F780959095BC01CD0108950F931F9312
S1130490CF93DF938230910510F482E090E0E091F5
S11304A05C01F0915D0120E030E0A0E0B0E0309725
S11304B019F1408151810281138148175907C8F00D
S11304C08417950769F4109731F012960C931297DC
S11304D013961C9327C000935C0110935D0122C006
S11304E02115310519F04217530718F49A01BD017B
S11304F0EF01DF01F801DBCF21153105F9F0281BED
S1130500390B2430310580F48A819B816115710592
S113051021F0FB019383828304C090935D01809357
S11305205C01FE01329644C0FE01E20FF31F819389
S1130530919322503109398328833AC020915A017A
S113054030915B01232B41F420910201309103018E
S113055030935B0120935A012091000130910101F5
S11305602115310541F42DB73EB740910401509156
S11305700501241B350BE0915A01F0915B01E21750
S1130580F307A0F42E1B3F0B2817390778F0AC01B2
S11305904E5F5F4F2417350748F04E0F5F1F50938F
S11305A05B0140935A018193919302C0E0E0F0E033
S11305B0CF01DF91CF911F910F910895CF93DF93D6
S11305C0009709F481C0FC01329713821282A09132
S11305D05C01B0915D01109781F420813181820F1B
S11305E0931F20915A0130915B012817390751F567
S11305F0F0935B01E0935A0167C0ED0120E030E025
S1130600CE17DF0740F44A815B819E0141155105F5
S1130610F1F0EA01F5CFD383C28340815181840F85
S1130620951FC817D90759F488819981840F951F9C
S11306300296918380838A819B819383828321158F
S1130640310529F4F0935D01E0935C013DC0E901BB
S1130650FB83EA8349915991C40FD51FEC17FD0719
S113066061F480819181840F951F0296E901998339
S11306708883828193819B838A83E0E0F0E01296F1
S11306808D919C911397009719F0FD01DC01F7CF30
S11306908D919C9111979D012E5F3F4F820F931F67
S11306A020915A0130915B012817390769F430977A
S11306B029F410925D0110925C0102C0138212822F
S11306C0B0935B01A0935A01DF91CF9108958F926B
S11306D09F92AF92BF92CF92DF92EF92FF92CF930D
S11306E0DF93EC01688179818A819B8161157105B1
S11306F08105910521F464E279ED8BE597E02DE124
S113070033EF41E050E00E94DE0349015A019B01AE
S1130710AC01A7EAB1E40E94FD036B017C01ACEEDD
S1130720B4EFA50194010E940B04DC01CB018C0DF4
S11307309D1DAE1DBF1DB7FF03C00197A109B048A1
S113074088839983AA83BB839F77DF91CF91FF909E
S1130750EF90DF90CF90BF90AF909F908F900895CF
S11307600E946703089586E091E00E94670308955C
S1130770A0E0B0E08093060190930701A0930801E4
S1130780B0930901089581E090E0F8940C94410439
S1130790F999FECF92BD81BDF89A992780B5089545
S11307A0262FF999FECF1FBA92BD81BD20BD0FB689
S11307B0F894FA9AF99A0FBE01960895052E97FBBC
S11307C01EF400940E94F50357FD07D00E94100404
S11307D007FC03D04EF40C94F503509540953095E6
S11307E021953F4F4F4F5F4F089590958095709599
S11307F061957F4F8F4F9F4F08950E943204A59FAC
S1130800900DB49F900DA49F800D911D1124089507
S1130810B7FF0C94FD030E94FD03821B930B089504
S1130820A1E21A2EAA1BBB1BFD010DC0AA1FBB1FF0
S1130830EE1FFF1FA217B307E407F50720F0A21B62
S1130840B30BE40BF50B661F771F881F991F1A94CF
S113085069F760957095809590959B01AC01BD01F9
S1130860CF010895A29FB001B39FC001A39F700D53
S1130870811D1124911DB29F700D811D1124911DA4
S10908800895F894FFCF77
S113088600005E01200001000000000800070006C9
S10D08960005000400030002000145
S9030000FC
