S00D0000736E616B652E7372656305
S11300000C9434000C9449000C9449000C9449005D
S11300100C9449000C9449000C9449000C94490038
S11300200C9449000C9449000C9449000C94490028
S11300300C9449000C9449000C9449000C94490018
S11300400C9449000C9449000C9449000C94490008
S11300500C9449000C9449000C9449000C944900F8
S11300600C9449000C94490011241FBECFEFD8E032
S1130070DEBFCDBF11E0A0E0B1E0ECE5F2E002C0EC
S113008005900D92A031B107D9F70E94FA000C94A3
S11300902C010C9400002A989EBD0DB407FEFDCFE0
S11300A08EBD0DB407FEFDCF2A9A89EF90E001972B
S11300B0F1F700C000000895803120F490E09A60C8
S11300C00E944B0008950F931F93CF93DF938830C2
S11300D080F5683070F5C82FD0E0FE01EE0FFF1FE9
S11300E0E050FF4F0081118141110FC081E090E089
S11300F002C0880F991F6A95E2F7809590950823AE
S11301001923C8010E944B000EC0413061F481E004
S113011090E002C0880F991F6A95E2F7082B192B0B
S1130120C8010E944B00CC0FDD1FC050DF4F198364
S11301300883DF91CF911F910F9108950F931F931F
S1130140CF93DF938830C0F4611102C000E007C090
S1130150613091F401E001C0000F8A95EAF7C0E034
S1130160D1E010E0C8018C2B9D2B0E944B00D3954D
S1130170C11589E0D807B1F7DF91CF911F910F9195
S11301800895CF93DF93C0E0D1E0CE010E944B00ED
S1130190D395C11589E0D807C1F7DF91CF910895B0
S11301A0E1E0F0E0DF0102C0AA0FBB1F4A95E2F7CD
S11301B0AD01DF0102C0AA0FBB1F2A95E2F79D0122
S11301C0242B02C0EE0FFF1F6A95E2F7E22BDC013D
S11301D0EC9381E58CBD80E099E00E944B0087E0C0
S11301E09BE00E944B000E94C10081E09CE00E94C1
S11301F04B0008952A9A22E045E063E084E290E00F
S11302000E94D0008FE00E945C0041E060E080E04A
S11302100E94630041E060E087E00E9463002FEFEA
S113022083ED90E3215080409040E1F700C000004E
S113023060E080E00E949E002FEF83ED90E3215068
S113024080409040E1F700C0000061E080E00E943F
S10F02509E00209A289AFFCFF894FFCF5C
S113025C000800070006000500040003000200016A
S9030000FC
