:100000000C9434000C9451000C9451000C94510049
:100010000C9451000C9451000C9451000C9451001C
:100020000C9451000C9451000C9451000C9451000C
:100030000C9451000C9451000C9451000C945100FC
:100040000C9451000C9451000C9451000C945100EC
:100050000C9451000C9451000C9451000C945100DC
:100060000C9451000C94510011241FBECFEFD8E026
:10007000DEBFCDBF11E0A0E0B1E0EEECF5E002C0E4
:1000800005900D92A431B107D9F721E0A4E1B1E0C8
:1000900001C01D92A435B207E1F70E94FA000C944A
:1000A000E5020C9400002A989EBD0DB407FEFDCF1A
:1000B0008EBD0DB407FEFDCF2A9A89EF90E001971F
:1000C000F1F700C00000089590E09A600E9453008C
:1000D0000895CF93DF93C0E0D1E0CE010E9453009A
:1000E000D395C11589E0D807C1F7DF91CF91089565
:1000F000E1E0F0E0DF0102C0AA0FBB1F4A95E2F782
:10010000AD01DF0102C0AA0FBB1F2A95E2F79D01D6
:10011000242B02C0EE0FFF1F6A95E2F7E22BDC01F1
:10012000EC9381E58CBD80E099E00E94530087E06C
:100130009BE00E9453000E94690081E09CE00E94C5
:100140005300089581E00895EF92FF920F931F935B
:10015000CF93DF93C82F162F042F0E94A20088236D
:1001600091F1812F0E94A200882369F1D0E0FE0165
:10017000EE0FFF1FEC5FFE4FE080F18001110FC01A
:1001800081E090E002C0880F991F1A95E2F78095F0
:100190009095E822F922C7010E9453000EC0013059
:1001A00061F481E090E002C0880F991F1A95E2F790
:1001B000E82AF92AC7010E945300CC0FDD1FCC5F4B
:1001C000DE4FF982E882DF91CF911F910F91FF906E
:1001D000EF9008952A9A22E045E063E084E290E0FF
:1001E0000E9478008FE00E9464000E94D5010E9466
:1001F000BB0108950E94EA00209A289AFFCFCF936E
:10020000DF93C82FD62F0E94A2008823A9F08D2F3C
:100210000E94A200882381F0EC2FF0E0EE0FFF1F78
:10022000EE0FFF1FEE0FFF1FEC5EFE4FED0FF11DF7
:1002300081E09081911180E0DF91CF910895CF927C
:10024000DF92EF92FF920F931F93CF93DF937C0186
:100250008B010E945C0287709078992324F40197A7
:10026000886F9F6F0196D82F0E945C0287709078EC
:10027000992324F40197886F9F6F0196C82F0F2E42
:10028000F7E0DF2EF02D6C2F8D2F0E94FF008823CA
:1002900029F0F701D083F801C08337C00E945C02C7
:1002A00087709078992324F40197886F9F6F019647
:1002B000D82F0E945C0287709078992324F40197CC
:1002C000886F9F6F0196C82FDA94D110DCCFC12CB4
:1002D00014C06C2F8D2F0E94FF00882329F0F70196
:1002E000C082F801C08311C0CF5FC83091F7CC2421
:1002F000C394CD0EF8E0CF1619F0C0E0DC2DE9CFA5
:100300008FEFF7018083F8018083DF91CF911F91F8
:100310000F91FF90EF90DF90CF9008951F93CF93B0
:10032000DF93C82FD62F142F0E94A2008823F9F044
:100330008D2F0E94A2008823D1F0EC2FF0E0EE0F69
:10034000FF1FEE0FFF1FEE0FFF1FEC5EFE4FED0FC6
:10035000F11D1083112331F041E06D2F8C2F0E948D
:10036000A40005C040E06D2F8C2F0E94A400DF91F7
:10037000CF911F910895CF93DF9300D0CDB7DEB713
:10038000BE016E5F7F4FCE0101960E941F018981E1
:100390008F3F31F06A816F3F19F041E00E948E017A
:1003A0000F900F90DF91CF91089586E690E00E9424
:1003B0006C0290E00E9461020E945C026FEF70E0AC
:1003C0000E94E801682F86E690E00E94740208957A
:1003D00097FB072E16F4009407D077FD09D00E94F2
:1003E000FC0107FC05D03EF4909581959F4F089540
:1003F000709561957F4F0895AA1BBB1B51E107C003
:10040000AA1FBB1FA617B70710F0A61BB70B881FA4
:10041000991F5A95A9F780959095BC01CD01089533
:100420008F929F92AF92BF92CF92DF92EF92FF9204
:10043000CF93DF93EC01688179818A819B8161157B
:1004400071058105910521F464E279ED8BE597E072
:100450002DE133EF41E050E00E94820249015A0150
:100460009B01AC01A7EAB1E40E94A1026B017C01EF
:10047000ACEEB4EFA50194010E94AF02DC01CB0108
:100480008C0D9D1DAE1DBF1DB7FF03C00197A109B7
:10049000B04888839983AA83BB839F77DF91CF91EC
:1004A000FF90EF90DF90CF90BF90AF909F908F9094
:1004B00008950E941002089580E091E00E941002C9
:1004C0000895A0E0B0E08093000190930101A09313
:1004D0000201B09303010895F999FECF92BD81BD49
:1004E000F89A992780B50895262FF999FECF1FBA5B
:1004F00092BD81BD20BD0FB6F894FA9AF99A0FBE4D
:1005000001960895052E97FB1EF400940E9499020F
:1005100057FD07D00E94B40207FC03D04EF40C94A0
:10052000990250954095309521953F4F4F4F5F4F21
:10053000089590958095709561957F4F8F4F9F4F4F
:1005400008950E94D602A59F900DB49F900DA49F80
:10055000800D911D11240895B7FF0C94A1020E94F3
:10056000A102821B930B0895A1E21A2EAA1BBB1BAA
:10057000FD010DC0AA1FBB1FEE1FFF1FA217B3076F
:10058000E407F50720F0A21BB30BE40BF50B661F85
:10059000771F881F991F1A9469F760957095809549
:1005A00090959B01AC01BD01CF010895A29FB001C0
:1005B000B39FC001A39F700D811D1124911DB29F97
:0E05C000700D811D1124911D0895F894FFCF38
:1005CE0001000000000800070006000500040003FB
:0405DE000002000116
:00000001FF
