:100000000C9434000C943E000C943E000C943E0082
:100010000C943E000C943E000C943E000C943E0068
:100020000C943E000C943E000C943E000C943E0058
:100030000C943E000C943E000C943E000C943E0048
:100040000C943E000C943E000C943E000C943E0038
:100050000C943E000C943E000C943E000C943E0028
:100060000C943E000C943E0011241FBECFEFD8E04C
:10007000DEBFCDBF0E949B000C94B7000C94000023
:100080008EBD0DB407FEFDCF8EB50895CF93C82F5A
:100090002A98892F0E9440008C2F0E9440002A9AA3
:1000A000CF910895CF93DF9321E030E0F90102C0B2
:1000B000EE0FFF1F6A95E2F7BF01F90102C0EE0FD4
:1000C000FF1F4A95E2F7AF01462B02C0220F331FF4
:1000D0008A95E2F7242B24B981ED8CBD8FE39CE94E
:1000E0000197F1F700C0000081E09CE00E9446000B
:1000F000EFE3FCE93197F1F700C0000087E09BE0F7
:100100000E9446008FE39CE90197F1F700C00000D0
:10011000C0E0D1E0CE010E944600EFE3FCE9319758
:10012000F1F700C00000D395C115F9E0DF0791F7A2
:10013000DF91CF9108952A9A42E065E083E00E9422
:100140005200C0E0D1E0CE010E9446002FEF89EFBF
:1001500090E0215080409040E1F700C000002196DF
:10016000C11529E0D20779F7209A289AFFCFF89491
:02017000FFCFBF
:00000001FF
