:100000000C9434000C9449000C9449000C94490061
:100010000C9449000C9449000C9449000C9449003C
:100020000C9449000C9449000C9449000C9449002C
:100030000C9449000C9449000C9449000C9449001C
:100040000C9449000C9449000C9449000C9449000C
:100050000C9449000C9449000C9449000C944900FC
:100060000C9449000C94490011241FBECFEFD8E036
:10007000DEBFCDBF11E0A0E0B1E0ECE6F1E002C0F0
:1000800005900D92A030B107D9F70E9492000C9410
:10009000B4000C9400002A989EBD0DB407FEFDCF5D
:1000A0008EBD0DB407FEFDCF2A9A8FE99FE0019720
:1000B000F1F700C000000895CF93DF93E1E0F0E096
:1000C000DF0102C0AA0FBB1F4A95E2F7AD01DF01B5
:1000D00002C0AA0FBB1F2A95E2F79D01242B02C084
:1000E000EE0FFF1F6A95E2F7E22BDC01EC9381E54E
:1000F0008CBD80E099E00E944B0087E09BE00E946D
:100100004B00C0E0D1E0CE010E944B00D395C11559
:10011000B9E0DB07C1F781E09CE00E944B00DF9172
:10012000CF9108952A9A22E045E063E084E290E0CE
:100130000E945C008FE09AE00E944B00C0E0D1E09A
:10014000CE010E944B002FEF89EF90E021508040BC
:100150009040E1F700C000002196C11529E0D207C8
:0C01600079F7209A289AFFCFF894FFCF7F
:00000001FF
