S01700004C45445F4D61747269785F746573742E7372656345
S11300000C9434000C9449000C9449000C9449005D
S11300100C9449000C9449000C9449000C94490038
S11300200C9449000C9449000C9449000C94490028
S11300300C9449000C9449000C9449000C94490018
S11300400C9449000C9449000C9449000C94490008
S11300500C9449000C9449000C9449000C944900F8
S11300600C9449000C94490011241FBECFEFD8E032
S1130070DEBFCDBF11E0A0E0B1E0EEEEF1E002C0E2
S113008005900D92A231B107D9F70E94CD000C94CE
S1130090F5000C9400002A989EBD0DB407FEFDCF18
S11300A08EBD0DB407FEFDCF2A9A8FE99FE001971C
S11300B0F1F700C000000895CF93DF93E1E0F0E092
S11300C0DF0102C0AA0FBB1F4A95E2F7AD01DF01B1
S11300D002C0AA0FBB1F2A95E2F79D01242B02C080
S11300E0EE0FFF1F6A95E2F7E22BDC01EC9381E54A
S11300F08CBD80E099E00E944B0087E09BE00E9469
S11301004B00C0E0D1E0CE010E944B00D395C11555
S1130110B9E0DB07C1F781E09CE00E944B00DF916E
S1130120CF9108950F931F93CF93DF93883080F579
S1130130683070F5C82FD0E0FE01EE0FFF1FE050CD
S1130140FF4F0081118141110FC081E090E002C096
S1130150880F991F6A95E2F78095909508231923D3
S1130160C8010E944B000EC0413061F481E090E070
S113017002C0880F991F6A95E2F7082B192BC80152
S11301800E944B00CC0FDD1FC050DF4F1983088342
S1130190DF91CF911F910F9108952A9A22E045E0B3
S11301A063E084E290E00E945C008FE09AE00E94A9
S11301B04B0041E060E080E00E94920041E067E093
S11301C080E00E94920041E063E085E00E9492009A
S11301D041E067E087E00E94920041E062E087E04E
S11101E00E949200209A289AFFCFF894FFCF35
S11301EE00080007000600050005000400030002D5
S10501FE0001FA
S9030000FC
